:020000040801F1
:1000000000000220CD090108F5080108FB080108DD
:1000100001090108070901080D0901080000000095
:1000200000000000000000000000000013090108AB
:100030001F090108000000002B0901083709010809
:100040001D0A01081D0A01081D0A01081D0A0108F0
:100050001D0A01081D0A01081D0A01081D0A0108E0
:100060001D0A01081D0A01081D0A01081D0A0108D0
:100070001D0A01081D0A01081D0A01081D0A0108C0
:100080001D0A01081D0A01081D0A01081D0A0108B0
:100090001D0A01081D0A01081D0A01081D0A0108A0
:1000A0001D0A01081D0A01081D0A01081D0A010890
:1000B0001D0A01081D0A01081D0A01081D0A010880
:1000C0001D0A01081D0A01081D0A01081D0A010870
:1000D0001D0A01081D0A01081D0A01081D0A010860
:1000E0001D0A01081D0A01081D0A01081D0A010850
:1000F0001D0A01081D0A01081D0A01081D0A010840
:100100001D0A01081D0A01081D0A01081D0A01082F
:100110001D0A01081D0A01081D0A01081D0A01081F
:100120001D0A01081D0A01081D0A01081D0A01080F
:100130001D0A010800000000000000001D0A01085F
:100140001D0A01081D0A01081D0A01081D0A0108EF
:100150001D0A01081D0A01081D0A01081D0A0108DF
:100160001D0A01081D0A01081D0A01081D0A0108CF
:100170001D0A01081D0A0108000000001D0A0108EF
:080180001D0A01081D0A010817
:1001900010B5054C237833B9044B13B10448AFF3C1
:1001A00000800123237010BD7000002000000000BB
:1001B000EC29010808B5034B1BB103490348AFF311
:1001C000008008BD0000000074000020EC29010838
:1001D000034613F8012B002AFBD1181A0138704787
:1001E00001F0FF01102A2BDB10F0070F08D010F8E8
:1001F000013B013A8B422DD010F0070F42B3F6D1EC
:10020000F0B441EA012141EA014122F007047FF004
:1002100000070023F0E80256083C85EA010586EA5B
:10022000010685FA47F5A3FA87F586FA47F6A5FA97
:1002300087F68EB9EED1F0BC01F0FF0102F00702A3
:1002400032B110F8013B013A83EA010313B1F8D14E
:100250000020704701387047002D06BF354603382F
:10026000073815F0010F07D1013015F4807F02BF68
:10027000013015F4C03F0130F0BC0138704700BFB9
:1002800053B94AB9002908BF00281CBF4FF0FF31FD
:100290004FF0FF3000F074B9ADF1080C6DE904CEF9
:1002A00000F006F8DDF804E0DDE9022304B0704751
:1002B0002DE9F047089E0D4604468846002B4DD197
:1002C0008A42944668D9B2FA82F252B101FA02F334
:1002D000C2F1200120FA01F10CFA02FC41EA030804
:1002E00094404FEA1C45210CB8FBF5FE1FFA8CF731
:1002F00005FB1E8341EA03430EFB07F199420BD92C
:100300001CEB03030EF1FF3080F01E81994240F296
:100310001B81AEF1020E63445B1AA4B2B3FBF5F08D
:1003200005FB103344EA034400FB07F7A7420AD950
:100330001CEB040400F1FF3380F00881A74240F277
:10034000058164440238E41B40EA0E4000211EB1DE
:10035000D4400023C6E90043BDE8F0878B4208D9AA
:10036000002E00F0EE800021C6E900050846BDE839
:10037000F087B3FA83F100294AD1AB4202D382421B
:1003800000F2F980841A65EB030301209846002EE1
:10039000E2D0C6E90048DFE702B9FFDEB2FA82F236
:1003A000002A40F09180A1EB0C054FEA1C471FFA90
:1003B0008CFE0121B5FBF7F307FB1350250C45EA32
:1003C00000450EFB03F0A84208D91CEB050503F11C
:1003D000FF3802D2A84200F2CB8043462D1AA4B2C5
:1003E000B5FBF7F007FB105544EA05440EFB00FE91
:1003F000A64508D91CEB040400F1FF3502D2A6453E
:1004000000F2BB802846A4EB0E0440EA03409EE7BE
:10041000C1F120078B4022FA07FC4CEA030C20FABA
:1004200007F405FA01F31C43FD404FEA1C4900FAAA
:1004300001F3B5FBF9F8200C1FFA8CFE09FB1855E7
:1004400040EA054508FB0EF0A84202FA01F20BD97A
:100450001CEB050508F1FF3A80F08880A84240F2C5
:100460008580A8F1020865442D1AA4B2B5FBF9F005
:1004700009FB105544EA054500FB0EFEAE4508D9C0
:100480001CEB050500F1FF346CD2AE456AD9023889
:10049000654440EA0840A0FB0294A5EB0E05A54286
:1004A000C846A64656D353D05EB1B3EB080265EBFF
:1004B0000E0505FA07F722FA01F3CD401F43C6E9FE
:1004C00000750021BDE8F087C2F1200320FA03F196
:1004D0000CFA02FC25FA03F395400D434FEA1C4742
:1004E0001FFA8CFEB3FBF7F107FB11302B0C43EA2C
:1004F000004301FB0EF0984204FA02F408D91CEB09
:10050000030301F1FF382FD298422DD902396344F9
:100510001B1AADB2B3FBF7F007FB103345EA0345F6
:1005200000FB0EF3AB4208D91CEB050500F1FF38C8
:1005300016D2AB4214D902386544ED1A40EA0141A3
:1005400038E73146304607E78646E5E61846FAE6DC
:100550004B45A9D2B9EB020864EB0C0E0138A3E7B6
:100560004046EAE7204694E74146D1E7D0467BE79C
:10057000023B654432E7084609E76444023842E733
:10058000704700BF80B500AF00F04AFA00F02CF8C9
:1005900000F0B2F800F086F8114800F015F90022DA
:1005A0004FF480510F4800F04BFD01224FF40051F1
:1005B0000C4800F045FD4FF4FA7000F09FFA01225C
:1005C0004FF48051074800F03BFD00224FF40051EA
:1005D000044800F035FD4FF4FA7000F08FFADEE7C2
:1005E000042A01080008024080B594B000AF07F16A
:1005F000200330220021184601F084FD07F10C038E
:1006000000221A605A609A60DA601A610023BB60A7
:10061000224B1B6C214A43F0805313641F4B1B6C0D
:1006200003F08053BB60BB6800237B601C4B1B68DE
:100630001B4A43F480431360194B1B6803F4804347
:100640007B607B6802233B620123FB6210233B63D8
:100650000023BB6307F12003184600F009FD0346A1
:10066000002B01D000F0D2F80F23FB6000233B6188
:1006700000237B610023BB610023FB6107F10C03B6
:100680000021184600F06CFF0346002B01D000F05B
:10069000BDF800BF5037BD4680BD00BF00380240E6
:1006A0000070004080B500AF114B124A1A60104B29
:1006B0004FF4E1325A600E4B00229A600C4B00223C
:1006C000DA600B4B00221A61094B0C225A61084B6D
:1006D00000229A61064B0022DA61054801F01EF9FA
:1006E0000346002B01D000F091F800BF80BD00BF91
:1006F0008C0000200044004080B588B000AF07F1B6
:100700000C0300221A605A609A60DA601A610023B2
:10071000BB602A4B1B6B294A43F004031363274B2E
:100720001B6B03F00403BB60BB6800237B60234B9F
:100730001B6B224A43F001031363204B1B6B03F036
:1007400001037B607B6800233B601C4B1B6B1B4AD7
:1007500043F002031363194B1B6B03F002033B606E
:100760003B6800224FF45051154800F069FC00220C
:100770000121144800F064FC4FF45053FB60012346
:100780003B6100237B610023BB6107F10C03194629
:100790000B4800F0BBFA0123FB6001233B610023FF
:1007A0007B610023BB6107F10C031946054800F08B
:1007B000ADFA00BF2037BD4680BD00BF0038024003
:1007C00000080240000402400FB480B59AB000AFA8
:1007D00007F174033B603B1D3A68396F184601F01E
:1007E000AFFC3B1D1846FFF7F3FC03469AB2391DD8
:1007F0004FF0FF33044801F0DEF800BF6837BD4614
:10080000BDE8804004B070478C00002080B400AF89
:1008100072B600BFFEE7000080B483B000AF0023D3
:100820007B600F4B5B6C0E4A43F4804353640C4B6C
:100830005B6C03F480437B607B6800233B60084B68
:100840001B6C074A43F080531364054B1B6C03F089
:1008500080533B603B6800BF0C37BD4680BC70478F
:100860000038024080B58AB000AF786007F1140309
:1008700000221A605A609A60DA601A617B681B680D
:10088000194A93422BD100233B61184B1B6C174A2A
:1008900043F400331364154B1B6C03F400333B61CA
:1008A0003B690023FB60114B1B6B104A43F00103B3
:1008B00013630E4B1B6B03F00103FB60FB680C23FF
:1008C0007B610223BB610023FB6103233B6207239F
:1008D0007B6207F114031946054800F017FA00BFC0
:1008E0002837BD4680BD00BF0044004000380240AC
:1008F0000000024080B400AFFEE780B400AFFEE726
:1009000080B400AFFEE780B400AFFEE780B400AF74
:10091000FEE780B400AF00BFBD4680BC704780B426
:1009200000AF00BFBD4680BC704780B400AF00BFC1
:10093000BD4680BC704780B500AF00F0C3F800BF73
:1009400080BD000080B586B000AF7860144A154BBA
:10095000D31A7B617B693B61134B1B68002B02D16F
:10096000114B124A1A60104B1A687B6813443A699B
:100970009A4207D201F09CFB03460C221A604FF00A
:10098000FF3309E0084B1B68FB60074B1A687B6864
:100990001344054A1360FB6818461837BD4680BDEE
:1009A0000000022000040000D0000020E800002029
:1009B00080B400AF034B044A9A6000BFBD4680BCC0
:1009C000704700BF00ED00E000000108DFF834D000
:1009D0000D480E490E4A002302E0D458C450043397
:1009E000C4188C42F9D30B4A0B4C002301E013606E
:1009F0000432A242FBD3FFF7DBFF01F05FFBFFF7FE
:100A0000C1FD70470000022000000020700000209F
:100A1000802A010870000020E8000020FEE70000A6
:100A200080B500AF0E4B1B680D4A43F40073136092
:100A30000B4B1B680A4A43F480631360084B1B6826
:100A4000074A43F480731360032000F02BF90F2052
:100A500000F008F8FFF7E0FE0023184680BD00BF55
:100A6000003C024080B582B000AF7860124B1A683B
:100A7000124B1B7819464FF47A73B3FBF1F3B2FBB8
:100A8000F3F3184600F035F90346002B01D001239B
:100A90000EE07B680F2B0AD8002279684FF0FF30F8
:100AA00000F00BF9064A7B681360002300E0012385
:100AB00018460837BD4680BD000000200800002011
:100AC0000400002080B400AF054B1B781A46054B8C
:100AD0001B681344034A136000BFBD4680BC7047C7
:100AE00008000020D400002080B400AF024B1B6837
:100AF0001846BD4680BC7047D400002080B584B045
:100B000000AF7860FFF7F0FFB8607B68FB60FB68C0
:100B1000B3F1FF3F05D00A4B1B781A46FB6813441C
:100B2000FB6000BFFFF7E0FF0246BB68D31AFA681C
:100B30009A42F7D800BF00BF1037BD4680BD00BF46
:100B40000800002080B485B000AF78607B6803F0B7
:100B50000703FB600C4BDB68BB60BA684FF6FF0312
:100B60001340BB60FB681A02BB68134343F0BF63CA
:100B700043F40033BB60044ABB68D36000BF143742
:100B8000BD4680BC704700BF00ED00E080B400AF00
:100B9000044BDB681B0A03F007031846BD4680BC04
:100BA000704700BF00ED00E080B483B000AF0346A3
:100BB0003960FB7197F90730002B0ADB3B68DAB22A
:100BC0000C4997F907301201D2B20B4483F8002385
:100BD0000AE03B68DAB20849FB7903F00F03043BF3
:100BE0001201D2B20B441A7600BF0C37BD4680BC4E
:100BF000704700BF00E100E000ED00E080B489B084
:100C000000AFF860B9607A60FB6803F00703FB612E
:100C1000FB69C3F10703042B28BF0423BB61FB69F5
:100C20000433062B02D9FB69033B00E000237B6100
:100C30004FF0FF32BB6902FA03F3DA43BB681A4094
:100C40007B699A404FF0FF317B6901FA03F3D94386
:100C50007B680B40134318462437BD4680BC704761
:100C600080B582B000AF78607B68013BB3F1807FD4
:100C700001D301230FE00A4A7B68013B53600F2137
:100C80004FF0FF30FFF790FF054B00229A60044BB6
:100C900007221A60002318460837BD4680BD00BFF2
:100CA00010E000E080B582B000AF78607868FFF7B0
:100CB00049FF00BF0837BD4680BD80B586B000AF94
:100CC0000346B9607A60FB7300237B61FFF75EFF28
:100CD00078617A68B9687869FFF790FF024697F9FA
:100CE0000F3011461846FFF75FFF00BF1837BD46AB
:100CF00080BD80B582B000AF78607868FFF7B0FF44
:100D0000034618460837BD4680BD000080B489B050
:100D100000AF7860396000237B6100233B610023D2
:100D2000BB610023FB616BE10122FB6902FA03F363
:100D30007B613B681B687A6913403B613A697B6958
:100D40009A4240F05A813B685B6803F00303012B31
:100D500005D03B685B6803F00303022B30D17B684E
:100D60009B68BB61FB695B00032202FA03F3DB4370
:100D7000BA691340BB613B68DA68FB695B0002FA41
:100D800003F3BA691343BB617B68BA699A607B68F5
:100D90005B68BB610122FB6902FA03F3DB43BA69BA
:100DA0001340BB613B685B681B0903F00102FB69F0
:100DB00002FA03F3BA691343BB617B68BA695A60EC
:100DC0003B685B6803F00303032B17D07B68DB6889
:100DD000BB61FB695B00032202FA03F3DB43BA69E0
:100DE0001340BB613B689A68FB695B0002FA03F33E
:100DF000BA691343BB617B68BA69DA603B685B68B8
:100E000003F00303022B23D1FB69DA087B68083265
:100E100053F82230BB61FB6903F007039B000F22EC
:100E200002FA03F3DB43BA691340BB613B681A69FA
:100E3000FB6903F007039B0002FA03F3BA6913434B
:100E4000BB61FB69DA087B680832B96943F8221094
:100E50007B681B68BB61FB695B00032202FA03F33A
:100E6000DB43BA691340BB613B685B6803F0030274
:100E7000FB695B0002FA03F3BA691343BB617B6849
:100E8000BA691A603B685B6803F44033002B00F0DA
:100E9000B4800023FB605F4B5B6C5E4A43F480438D
:100EA00053645C4B5B6C03F48043FB60FB685A4A01
:100EB000FB699B08023352F82330BB61FB6903F0E6
:100EC00003039B000F2202FA03F3DB43BA691340CA
:100ED000BB617B68514A93422BD07B68504A934256
:100EE00025D07B684F4A93421FD07B684E4A93427D
:100EF00019D07B684D4A934213D07B684C4A934289
:100F00000DD07B684B4A934207D07B684A4A934294
:100F100001D107230EE008230CE006230AE0052395
:100F200008E0042306E0032304E0022302E0012397
:100F300000E00023FA6902F0030292009340BA69CC
:100F40001343BB613449FB699B080233BA6941F81A
:100F500023203A4B9B68BB613B69DB43BA69134072
:100F6000BB613B685B6803F48013002B03D0BA6954
:100F70003B691343BB61314ABB6993602F4BDB680C
:100F8000BB613B69DB43BA691340BB613B685B688B
:100F900003F40013002B03D0BA693B691343BB6110
:100FA000264ABB69D360254B5B68BB613B69DB4369
:100FB000BA691340BB613B685B6803F40033002BE4
:100FC00003D0BA693B691343BB611C4ABB695360D8
:100FD0001A4B1B68BB613B69DB43BA691340BB61B9
:100FE0003B685B6803F48033002B03D0BA693B692C
:100FF0001343BB61114ABB691360FB690133FB6199
:10100000FB690F2B7FF690AE00BF00BF2437BD46B3
:1010100080BC7047003802400038014000000240A8
:101020000004024000080240000C02400010024090
:101030000014024000180240001C0240003C014025
:1010400080B483B000AF78600B467B8013467B7022
:101050007B78002B03D07A887B689A6103E07B88D9
:101060001A047B689A6100BF0C37BD4680BC70478C
:1010700080B586B000AF78607B68002B01D101237A
:1010800067E27B681B6803F00103002B75D0884B77
:101090009B6803F00C03042B0CD0854B9B6803F07A
:1010A0000C03082B12D1824B5B6803F48003B3F569
:1010B000800F0BD17E4B1B6803F40033002B5BD0F9
:1010C0007B685B68002B57D1012342E27B685B6839
:1010D000B3F5803F06D1764B1B68754A43F48033E5
:1010E00013601DE07B685B68B3F5A02F0CD1704BDB
:1010F0001B686F4A43F4802313606D4B1B686C4A76
:1011000043F4803313600BE0694B1B68684A23F497
:1011100080331360664B1B68654A23F48023136099
:101120007B685B68002B13D0FFF7DEFC386108E0BA
:10113000FFF7DAFC02463B69D31A642B01D903237B
:1011400007E25B4B1B6803F40033002BF0D014E084
:10115000FFF7CAFC386108E0FFF7C6FC02463B69AE
:10116000D31A642B01D90323F3E1514B1B6803F419
:101170000033002BF0D100E000BF7B681B6803F058
:101180000203002B63D04A4B9B6803F00C03002B37
:101190000BD0474B9B6803F00C03082B1CD1444B2E
:1011A0005B6803F48003002B16D1414B1B6803F0EE
:1011B0000203002B05D07B68DB68012B01D00123E3
:1011C000C7E13B4B1B6823F0F8027B681B69DB001F
:1011D000374913430B603AE07B68DB68002B20D073
:1011E000344B01221A60FFF77FFC386108E0FFF7FB
:1011F0007BFC02463B69D31A022B01D90323A8E1E9
:101200002B4B1B6803F00203002BF0D0284B1B680C
:1012100023F0F8027B681B69DB00254913430B6050
:1012200015E0244B00221A60FFF75EFC386108E0ED
:10123000FFF75AFC02463B69D31A022B01D903235C
:1012400087E11B4B1B6803F00203002BF0D17B6886
:101250001B6803F00803002B36D07B685B69002B0A
:1012600016D0154B01221A60FFF73EFC386108E0EA
:10127000FFF73AFC02463B69D31A022B01D903233C
:1012800067E10B4B5B6F03F00203002BF0D01BE018
:10129000094B00221A60FFF727FC38610EE0FFF7C8
:1012A00023FC02463B69D31A022B07D9032350E1E2
:1012B0000038024000004742800E4742884B5B6F77
:1012C00003F00203002BEAD17B681B6803F00403E0
:1012D000002B00F097800023FB75814B1B6C03F003
:1012E0008053002B0FD10023BB607D4B1B6C7C4ACD
:1012F00043F0805313647A4B1B6C03F08053BB6044
:10130000BB680123FB75774B1B6803F48073002BCC
:1013100018D1744B1B68734A43F480731360FFF752
:10132000E3FB386108E0FFF7DFFB02463B69D31AB5
:10133000022B01D903230CE16A4B1B6803F4807371
:10134000002BF0D07B689B68012B06D1644B1B6F90
:10135000634A43F0010313671CE07B689B68052B1D
:101360000CD15F4B1B6F5E4A43F0040313675C4B69
:101370001B6F5B4A43F0010313670BE0584B1B6F75
:10138000574A23F001031367554B1B6F544A23F050
:10139000040313677B689B68002B15D0FFF7A4FB41
:1013A00038610AE0FFF7A0FB02463B69D31A41F21D
:1013B0008832934201D90323CBE0494B1B6F03F0E2
:1013C0000203002BEED014E0FFF78EFB38610AE039
:1013D000FFF78AFB02463B69D31A41F288329342F7
:1013E00001D90323B5E03E4B1B6F03F00203002B32
:1013F000EED1FB7D012B05D1394B1B6C384A23F014
:10140000805313647B689B69002B00F0A180344BF0
:101410009B6803F00C03082B5CD07B689B69022B54
:1014200041D1314B00221A60FFF75EFB386108E0C2
:10143000FFF75AFB02463B69D31A022B01D903235B
:1014400087E0274B1B6803F00073002BF0D17B680B
:10145000DA697B681B6A1A437B685B6A9B011A43E3
:101460007B689B6A5B08013B1B041A437B68DB6A51
:101470001B061B4913434B601B4B01221A60FFF7ED
:1014800033FB386108E0FFF72FFB02463B69D31AB4
:10149000022B01D903235CE0114B1B6803F000739E
:1014A000002BF0D054E0104B00221A60FFF71CFB19
:1014B000386108E0FFF718FB02463B69D31A022B9C
:1014C00001D9032345E0064B1B6803F00073002B92
:1014D000F0D13DE07B689B69012B07D1012338E007
:1014E0000038024000700040600047421B4B5B68C0
:1014F000FB607B689B69012B28D0FB6803F48002AA
:101500007B68DB699A4221D1FB6803F03F027B686C
:101510001B6A9A421AD1FA6847F6C07313407A6878
:10152000526A9201934211D1FB6803F440327B6806
:101530009B6A5B08013B1B049A4207D1FB6803F0DE
:1015400070627B68DB6A1B069A4201D0012300E0CF
:10155000002318461837BD4680BD00BF0038024042
:1015600080B584B000AF786039607B68002B01D112
:101570000123CCE0684B1B6803F007033A689A42EA
:101580000CD9654B3A68D2B21A70634B1B6803F0F2
:1015900007033A689A4201D00123B8E07B681B68D0
:1015A00003F00203002B20D07B681B6803F00403C8
:1015B000002B05D0594B9B68584A43F4E053936085
:1015C0007B681B6803F00803002B05D0534B9B6816
:1015D000524A43F460439360504B9B6823F0F002FF
:1015E0007B689B684D4913438B607B681B6803F0E5
:1015F0000103002B44D07B685B68012B07D1474B6C
:101600001B6803F40033002B19D101237FE07B68B2
:101610005B68022B03D07B685B68032B07D13F4BD1
:101620001B6803F00073002B09D101236FE03B4BD3
:101630001B6803F00203002B01D1012367E0374B45
:101640009B6823F003027B685B68344913438B601B
:10165000FFF74AFAF8600AE0FFF746FA0246FB682D
:10166000D31A41F28832934201D903234FE02B4B26
:101670009B6803F00C027B685B689B009A42EBD18D
:10168000254B1B6803F007033A689A420CD2224BA1
:101690003A68D2B21A70204B1B6803F007033A680D
:1016A0009A4201D0012332E07B681B6803F00403F7
:1016B000002B08D0194B9B6823F4E0527B68DB6851
:1016C000164913438B607B681B6803F00803002BEB
:1016D00009D0124B9B6823F460427B681B69DB00D6
:1016E0000E4913438B6000F021F802460B4B9B68B8
:1016F0001B0903F00F030A49CB5C22FA03F3094AE2
:101700001360094B1B681846FFF7ACF90023184615
:101710001037BD4680BD00BF003C0240003802408B
:10172000242A010800000020040000202DE9B04F09
:1017300090B000AF00237B630023FB6300233B6377
:101740000023BB63594B9B6803F00C03082B0DD09F
:10175000082B00F2A280002B02D0042B03D09CE0C7
:10176000534BBB639CE0534BBB6399E04F4B5B68AF
:1017700003F03F037B634D4B5B6803F48003002B56
:1017800027D04A4B5B689B0900223B627A623B6A26
:10179000C3F308000021474B03FB01F2002300FBC9
:1017A00003F31344434AA0FB0221F962BA62FA6AC6
:1017B0001344FB627B6B0022BB61FA61D7E906230D
:1017C000D7E90A01FEF75CFD02460B461346FB63B0
:1017D00055E0364B5B689B0900223B617A613B69AF
:1017E000C3F3080A4FF0000B52465B464FF000006F
:1017F0004FF00001590141EAD261500102460B4607
:10180000B2EB0A0863EB0B094FF000024FF0000344
:101810004FEA891343EA98634FEA8812B2EB08044F
:1018200063EB09054FF000024FF00003EB0043EAC1
:101830005473E20014461D4614EB0A033B6045EB6B
:101840000B037B604FF000024FF00003D7E9004527
:1018500029468B0220462946044643EA9453014612
:101860008A02104619467B6B0022BB60FA60D7E9FA
:101870000223FEF705FD02460B461346FB630B4BA6
:101880005B681B0C03F0030301335B003B63FA6BE3
:101890003B6BB2FBF3F3BB6302E0054BBB6300BFE2
:1018A000BB6B18464037BD46BDE8B08F00380240DC
:1018B0000024F40040787D0180B400AF024B1B6827
:1018C0001846BD4680BC70470000002080B500AFC0
:1018D000FFF7F2FF0246054B9B689B0A03F00703E4
:1018E0000349CB5C22FA03F3184680BD003802405E
:1018F000342A010880B500AFFFF7DEFF0246054B32
:101900009B685B0B03F007030349CB5C22FA03F3EC
:10191000184680BD00380240342A010880B582B0E4
:1019200000AF78607B68002B01D101233FE07B682A
:1019300093F83D30DBB2002B06D17B68002283F8A0
:101940003C207868FEF78EFF7B68242283F83D20D8
:101950007B681B68DA687B681B6822F40052DA60D7
:10196000786800F029F97B681B681A697B681B6836
:1019700022F490421A617B681B685A697B681B6875
:1019800022F02A025A617B681B68DA687B681B6850
:1019900042F40052DA607B6800221A647B682022DD
:1019A00083F83D207B68202283F83E2000231846E0
:1019B0000837BD4680BD80B58AB002AFF860B96017
:1019C0003B601346FB8000237B61FB6893F83D304E
:1019D000DBB2202B7CD1BB68002B02D0FB88002B14
:1019E00001D1012375E0FB6893F83C30012B01D154
:1019F00002236EE0FB68012283F83C20FB68002292
:101A00001A64FB68212283F83D20FFF76DF87861A6
:101A1000FB68FA889A84FB68FA88DA84FB689B681A
:101A2000B3F5805F08D1FB681B69002B04D100234C
:101A3000FB61BB68BB6103E0BB68FB610023BB616A
:101A4000FB68002283F83C202AE03B6800937B6916
:101A500000228021F86800F040F80346002B01D0F6
:101A6000032336E0FB69002B0BD1BB691B881A46A8
:101A7000FB681B68C2F308025A60BB690233BB6192
:101A800007E0FB691A78FB681B685A60FB69013341
:101A9000FB61FB68DB8C9BB2013B9AB2FB68DA848A
:101AA000FB68DB8C9BB2002BCFD13B6800937B693A
:101AB00000224021F86800F010F80346002B01D006
:101AC000032306E0FB68202283F83D20002300E08A
:101AD000022318462037BD4680BD80B590B000AFC8
:101AE000F860B9603B601346FB7150E0BB6CB3F12A
:101AF000FF3F4CD0BB6C002B07D0FEF7F5FF024632
:101B00003B68D31ABA6C9A4241D2FB681B680C330B
:101B1000BB62BB6A53E8003F7B627B6A23F4D073ED
:101B2000FB63FB681B680C33FA6B7A633B63396BAE
:101B30007A6B41E80023FB62FB6A002BE5D1FB686E
:101B40001B6814337B617B6953E8003F3B613B6951
:101B500023F00103BB63FB681B681433BA6B3A6262
:101B6000FB61F9693A6A41E80023BB61BB69002B5C
:101B7000E5D1FB68202283F83D20FB68202283F812
:101B80003E20FB68002283F83C2003230FE0FB6823
:101B90001B681A68BB681340BA689A420CBF0123DD
:101BA0000023DBB21A46FB799A429FD000231846E5
:101BB0004037BD4680BD00002DE9B04FC0B000AF3A
:101BC000C7F8F400D7F8F4301B681B6923F44050C1
:101BD000D7F8F430D968D7F8F4301A6840EA01032E
:101BE0001361D7F8F4309A68D7F8F4301B691A43B8
:101BF000D7F8F4305B691A43D7F8F430DB69134344
:101C0000C7F8F830D7F8F4301B68DB6823F41641C6
:101C100021F00C01D7F8F4301A68D7F8F8300B43EC
:101C2000D360D7F8F4301B685B6923F44070D7F8B1
:101C3000F4309969D7F8F4301A6840EA0103536127
:101C4000D7F8F4301A68914B9A4205D0D7F8F4309F
:101C50001A688F4B9A4204D1FFF74CFEC7F8FC007C
:101C600003E0FFF733FEC7F8FC00D7F8F430DB6978
:101C7000B3F5004F40F01081D7F8FC300022C7F8D0
:101C8000E830C7F8EC20D7E93A4522462B469118B0
:101C9000B9655B41FB65D7E9162320462946044612
:101CA00012EB04080C4643EB04094FF000024FF01E
:101CB00000034FEAC90343EA58734FEAC80290464B
:101CC0009946034618EB0303C7F8E0300B4649EB8F
:101CD0000303C7F8E430D7F8F4305B680022C7F894
:101CE000D830C7F8DC20D7E936120B46DB183B6545
:101CF000134642EB03037B65D7E91423D7E9380188
:101D0000FEF7BEFA02460B46624BA3FB02235B09B9
:101D10001C01D7F8FC300022C7F8D030C7F8D42017
:101D2000D7E9348942464B469118B9645B41FB645C
:101D3000D7E91223454612EB050A404649460D46AF
:101D400043EB050B4FF000024FF000034FEACB03CB
:101D500043EA5A734FEACA0292469B4603461AEB7D
:101D60000303C7F8C8300B464BEB0303C7F8CC306E
:101D7000D7F8F4305B680022C7F8C030C7F8C42039
:101D8000D7E930120B46DB183B64134642EB0303E2
:101D90007B64D7E91023D7E93201FEF771FA0246D6
:101DA0000B4611463B4BA3FB01235B09642202FB5C
:101DB00003F3CB1ADB0003F13202364BA3FB022301
:101DC0005B095B0003F4F8731C44D7F8FC30002275
:101DD000C7F8B830C7F8BC20D7E92E8942464B4631
:101DE0009118B9635B41FB63D7E90E234146511853
:101DF000396349464B417B634FF000024FF00003CB
:101E0000D7E90CAB5946CB00554643EA55735146CA
:101E1000CA0010461946034642469B18C7F8B03020
:101E20004B460A4642EB0303C7F8B430D7F8F43008
:101E30005B680022C7F8A830C7F8AC20D7E92A129F
:101E40000B46DB18BB62134642EB0303FB62D7E988
:101E50000A23D7E92C01FEF713FA02460B460D4B75
:101E6000A3FB02135B09642101FB03F3D31ADB001C
:101E70003233084AA2FB03235B0903F00702D7F8B9
:101E8000F4301B6822449A6009E100BF0010014051
:101E9000001401401F85EB51D7F8FC300022C7F831
:101EA000A030C7F8A420D7E9288942464B469118AC
:101EB00039625B417B62D7E9082341465418CC461E
:101EC00043EB0C054FF000024FF00003EB0043EA38
:101ED0005473E20014461D46404649460346E31843
:101EE000C7F898300B4645EB0303C7F89C30D7F88A
:101EF000F4305B680022C7F89030C7F894204FF0A8
:101F000000024FF00003D7E9244529468B00204604
:101F10002946044643EA947301468A00D7E926011C
:101F2000FEF7AEF902460B46604BA3FB02235B09AA
:101F30001C01D7F8FC300022C7F88830C7F88C2085
:101F4000D7E9228942464B469118B9615B41FB6152
:101F5000D7E9062341465118396149464B417B6117
:101F60004FF000024FF00003D7E904AB5946CB0015
:101F7000554643EA55735146CA0010461946034672
:101F800042469B18C7F880304B460A4642EB030393
:101F9000C7F88430D7F8F4305B680022BB67FA6773
:101FA0004FF000024FF00003D7E91E8949468B002D
:101FB000454643EA957341468A00D7E92001FEF77A
:101FC0005FF902460B46394BA3FB02135B09642100
:101FD00001FB03F3D31A1B013233344AA2FB032360
:101FE0005B0903F0F0031C44D7F8FC3000223B6788
:101FF0007A67D7E91C8942464B469118B9605B4124
:10200000FB60D7E9022341465118396049464B41EC
:102010007B604FF000024FF00003D7E900AB594658
:10202000CB00554643EA55735146CA00104619463F
:10203000034642469B18BB664B460A4642EB0303E7
:10204000FB66D7F8F4305B6800223B667A664FF097
:1020500000024FF00003D7E9188949468B00454636
:1020600043EA957341468A00D7E91A01FEF708F959
:1020700002460B460D4BA3FB02135B09642101FBD7
:1020800003F3D31A1B013233084AA2FB03235B0973
:1020900003F00F02D7F8F4301B6822449A6000BFA7
:1020A00007F58077BD46BDE8B08F00BF1F85EB51B7
:1020B000014B1868704700BF0C00002070B50D4D33
:1020C0000D4C641BA4100026A64209D10B4D0C4CEC
:1020D00000F08CFC641BA4100026A64205D170BD44
:1020E00055F8043B98470136EEE755F8043B98470E
:1020F0000136F2E7782A0108782A0108782A0108CF
:102100007C2A010802440346934200D1704703F839
:10211000011BF9E700B59BB0009104916FF00041FD
:102120000591029105490391694600F06FF8009B03
:1021300000221A701BB05DF804FB00BF0802FFFF0D
:1021400013460A46014602480068FFF7E3BF00BF96
:102150000C0000202DE9F0478E689E4282460C4616
:1021600090461F4638D88A8912F4906F32D025687D
:102170000969A5EB0109656905EB450505EBD57511
:1021800001334B446D109D4238BF1D46530531D578
:10219000294600F061FB064650B90C23CAF800300E
:1021A000A38943F04003A3814FF0FF30BDE8F087DF
:1021B00021694A4600F0BEFAA38923F4906343F0F4
:1021C0008003A381266165614E44A5EB0905266065
:1021D000A5603E46BE4200D93E4620683246414692
:1021E00000F0B6FAA3689B1BA36023683344236006
:1021F0000020DBE72A4600F0A3FB06460028E1D1D9
:102200002169504600F0BEFAC7E700002DE9F04F03
:1022100098468B891B069DB007460D4614460ED581
:102220000B6963B9402100F017FB2860286120B9D1
:102230000C233B604FF0FF30D1E040236B61002363
:10224000099320238DF82930CDF80C803023DFF856
:10225000A8818DF82A304FF0010923469A4613F8D9
:10226000012B0AB1252AF9D1BAEB040B0BD05B463E
:10227000224629463846FFF76DFF013000F0AA805C
:10228000099A5A4409929AF80030002B00F0A28073
:1022900000234FF0FF32CDE905230AF1010A049330
:1022A00007938DF853301A935446052214F8011BF6
:1022B0005148FDF795FF049AD8B9D00644BF2023B2
:1022C0008DF85330110744BF2B238DF853309AF803
:1022D00000302A2B15D0079A544600204FF00A0CE4
:1022E000214611F8013B303B092B4ED9B0B1079282
:1022F00014E0A0EB080309FA03F313430493A24686
:10230000D2E7039B191D1B680391002BBBBF5B42E7
:1023100042F0020207930793B8BF049223782E2B52
:102320000CD163782A2B35D1039B1A1D1B680392AD
:10233000002BB8BF4FF0FF3302340593DFF8BCA089
:10234000217803225046FDF74BFF40B14023A0EB1C
:102350000A0003FA00F0049B03430134049314F8C9
:10236000011B27488DF828100622FDF739FF0028A9
:1023700038D0244B1BBB039B073323F007030833E0
:102380000393099B3344099367E70CFB02320C4625
:102390000120A5E700230134059319464FF00A0CEC
:1023A000204610F8012B303A092A03D9002BC5D05A
:1023B0000591C3E70CFB012104460123F0E703ABC1
:1023C00000932A46104B04A93846AFF30080421C04
:1023D0000646D6D1AB895B063FF52CAF09981DB0F8
:1023E000BDE8F08F03AB00932A46074B04A938469B
:1023F00000F07AF8EBE700BF3C2A0108422A010806
:10240000462A010800000000552101082DE9F04787
:10241000164699468A680B69DDF820809342B8BF5A
:102420001346336091F8432007460C460AB1013346
:1024300033602368990642BF3368023333602568EE
:1024400015F0060506D104F1190AE36832689B1AF3
:10245000AB4226DC94F84320131E226818BF0123E8
:1024600092062BD404F1430249463846C047013056
:102470001ED02368E568326803F00603042B08BF0A
:10248000AD1AA36822690CBF25EAE57500259342C1
:10249000C4BF9B1AED1800261A34B5421AD1002089
:1024A00008E00123524649463846C047013003D16F
:1024B0004FF0FF30BDE8F0870135C6E7E1185A1C40
:1024C000302081F84300224494F8451082F84310EC
:1024D0000233C7E70123224649463846C047013048
:1024E000E6D00136D9E700002DE9FF470F7E0C9DAD
:1024F000782F914680460C469A4601F1430207D850
:10250000622F0AD8002F00F0D880582F00F0A38047
:1025100004F1420584F842703AE0A7F16303152BF9
:10252000F6D801A151F823F081250108952501086D
:10253000112501081125010811250108112501089F
:10254000952501081125010811250108112501080B
:1025500011250108A1260108C525010883260108C7
:102560001125010811250108C326010811250108BC
:10257000C525010811250108112501088B26010830
:102580002B681A1D1B682A6004F1420584F842304A
:102590000123A3E020682968060601F104030AD597
:1025A0000E682B60002E03DA2D23764284F8433028
:1025B0005E480A2319E00E682B6010F0400F18BF28
:1025C00036B2EFE72B682068191D2960010601D596
:1025D0001E6802E04606FBD51E8854486F2F0CBFCC
:1025E00008230A23002184F843106568A560002DA4
:1025F000A2BF216821F0040121600EB9002D4DD049
:102600001546B6FBF3F103FB1167C75D05F8017DC5
:102610003746BB420E46F4D9082B0BD12368DE07A0
:1026200008D5236961689942DEBF302305F8013C73
:1026300005F1FF35521B2261CDF800A04B4603AADD
:1026400021464046FFF7E2FE01304CD14FF0FF300B
:1026500004B0BDE8F087354881F8457029682368E3
:1026600051F8046B29601D0614D5DF0744BF43F001
:10267000200323601EB9236823F020032360102366
:10268000B0E7236843F0200323607823284884F8C8
:102690004530E3E7590648BFB6B2E6E71546BBE763
:1026A0002B6826686169181D286035061B6801D5EE
:1026B000196002E07006FBD51980002323611546DE
:1026C000BAE72B681A1D2A601D6862680021284637
:1026D000FDF786FD08B1401B60606368236100233D
:1026E00084F84330A8E723692A4649464046D04744
:1026F0000130ABD023689B0713D4E068039B98425A
:10270000B8BF1846A4E70123324649464046D047A1
:1027100001309BD00135E36803995B1AAB42F2DCD0
:10272000EBE7002504F11906F5E700BF4D2A010883
:102730005E2A01080A44914200F1FF3300D170473C
:1027400010B511F8014B03F8014F9142F9D110BDBA
:10275000884210B501EB020402D98442234607D80F
:10276000431EA14208D011F8012B03F8012FF8E70E
:10277000024401468A4200D110BD13F8014D02F80F
:10278000014DF7E738B50546002941D051F8043C22
:102790000C1F002BB8BFE41800F012F91D4A136893
:1027A00033B9636014602846BDE8384000F00EB9C4
:1027B000A34208D9206821188B4201BF19685B68C1
:1027C00009182160EDE71A465B680BB1A342FAD9FC
:1027D00011685018A0420BD1206801445018834260
:1027E0001160E0D118685B68536001441160DAE75A
:1027F00002D90C232B60D6E7206821188B4204BF36
:1028000019685B68636004BF091821605460CAE7F7
:1028100038BD00BFD800002070B50E4E0C463168A0
:10282000054611B900F0BCF830602146284600F09A
:10283000B7F8431C0AD0C41C24F00304A04207D0FC
:10284000211A284600F0ACF8013001D14FF0FF34D6
:10285000204670BDDC0000202DE9F041CD1C25F0A4
:10286000030508350C2D38BF0C25002D074601DB6C
:10287000A94205D90C233B6000263046BDE8F08113
:102880002E4E00F09DF833681C4634BB294638466E
:10289000FFF7C2FF431C04464DD134682646002E84
:1028A00040D123683146384604EB030800F078F83D
:1028B00080453AD1216803356D1A25F003050835A6
:1028C0000C2D38BF0C2529463846FFF7A5FF0130EF
:1028D0002BD023682B4423600EE02268521B1ED4A9
:1028E0000B2A16D96119A342256018BF5960636885
:1028F00008BF316062514B60384604F10B0600F0AE
:1029000065F826F00706231DF21AB6D09B1BA350CC
:10291000B3E76268A3420CBF32605A60ECE723461B
:102920006468B2E734467668B9E70C233B60384602
:1029300000F04CF8A1E72560DEE700BFD8000020DA
:102940002DE9F041804614460E4621B9BDE8F0411C
:102950001146FFF781BF2AB9FFF714FF2546284625
:10296000BDE8F08100F038F88442074602D8B4EBA5
:10297000500F12D821464046FFF76EFF054600284B
:10298000EDD0BC422246314628BF3A46FFF7D2FE80
:1029900031464046FFF7F6FEE1E73546DFE7000047
:1029A00038B5064D0023044608462B60FDF7CAFFE4
:1029B000431C02D12B6803B1236038BDE000002026
:1029C000014800F011B800BFE4000020014800F009
:1029D0000CB800BFE400002051F8043C181F002B85
:1029E000BCBF0B58C018704770477047F8B500BFA0
:1029F000F8BC08BC9E467047F8B500BFF8BC08BCE0
:042A00009E46704737
:102A04000A0A57656C636F6D6520746F2055736592
:102A140072204170706C69636174696F6E0D0A0095
:102A2400000000000000000001020304060708097A
:102A34000000000001020304232D302B2000686CE9
:102A44004C006566674546470030313233343536CD
:102A54003738394142434445460030313233343506
:0C2A640036373839616263646566000033
:082A700040D8FF7F01000000C7
:042A7800B50101089B
:042A7C0091010108BB
:102A80000024F400100000000100000010000020ED
:102A90000000000000000000000000000000000036
:102AA0000000000000000000000000000000000026
:102AB0000000000000000000000000000000000016
:102AC0000000000000000000000000000000000006
:102AD00000000000000000000000000000000000F6
:102AE00000000000000000000000000000000000E6
:04000005080109CD18
:00000001FF
